:060000000A128A11122809
:10000800FE00030E83120313C8000408C9000A087F
:10001800CA007F08CB000A168A11DD2A0A168A153B
:10002800A52C83120313611F1F2861130A128A1556
:100038003E200A128A110A3083164D02031C7C28BE
:10004800CD01CC0AF21583123708031DB7038316B6
:10005800520803193228D20B322872165508031990
:100068003F28D503D601D508031D3F288312023047
:1000780061158316D60083124308031DC303831634
:100088005308031DD3035F08031DDF0383123308DE
:10009800031DB30383165008031DD00301308312D8
:1000A800E1066118E1140530CC0083164C081727C7
:1000B8000A128A110038031D7C282030E206043019
:1000C80086068316560803197C288312E21A6E28BE
:1000D800E1157C28E11D7C288316D60B7C28831229
:1000E80067088316E300831261117216B201B20A1F
:1000F8000A3083164C02031CD628CC01CF0A83127F
:100108004008031DC0033408031DB4033B08031D46
:10011800BB0383163D083C0403199A280130BC022E
:10012800031CBD033D083C040319F2133B083A04C1
:100138000319A2280130BA02031CBB033F083E047E
:100148000319AA280130BE02031CBF0303173D0888
:100158003C040319B3280130BC02031CBD0303137C
:10016800390838040319BC280130B802031CB90344
:100178000317690868040319CC280130E802031C36
:10018800E90369086804031DCC2883120313AA171E
:10019800831603136E086D040319D6280130ED0287
:1001A800031CEE033C304F02031C0800CF018312EE
:1001B800E11FE9288316410840040319E9280130A2
:1001C800C0020030031CC103C102F31E08008316DD
:1001D80043084204031908000130C2020030031C1E
:1001E800C303C30208000D30D1000030E3260A1211
:1001F8008A111530D1000130E3260A128A11023023
:10020800D101D10AE3260A128A110930D10003303C
:10021800E32ED40054080319162983164308C7008F
:1002280042081A2983164108C7004008C6003C3016
:1002380093270A128A1134270A128A114C08D5000A
:100248003C309F270A128A115E270A128A114D082C
:100258004C04031DD50A0B3055020A300318D5008B
:100268005502031C3B290230D101D10A3E29123024
:10027800D1000230E3260A128A110A30CC00550850
:1002880017270A128A11D500D1000330E326201659
:100298000800F01C542983120030D101D10A5729D3
:1002A80083120030D101E3260A128A11701D6029D9
:1002B8000130D101D10A62290130D101E3260A12A5
:1002C8008A11F01D6B290230D101D10A6D29023043
:1002D800D101E3260A128A11701E76290330D10152
:1002E800D10AE32E0330D101E32EF01F80298312B7
:1002F8000030D101D10A832983120030D101E326CD
:100308000A128A11711C8C290130D101D10A8E2957
:100318000130D101E3260A128A11F11D9729023012
:10032800D101D10A99290230D101E3260A128A1192
:10033800F11CA2290330D101D10AE32E0330D101E7
:10034800E32E603083126302031CB2291530D100FA
:100358000030E3260A128A111630E42905306302B8
:100368000318BE291330D1000030E3260A128A117F
:100378001430E4296308D4000A30D501CC00CD013B
:100388005508CF005408CE0027230A128A114C08BA
:10039800D600D608031DD2291230D3295608D10019
:1003A8000030E3260A128A110A30CC00CD01550824
:1003B800CF005408CE006C230A128A114C08D600CC
:1003C800D1000130E3260A128A11E21CED29E21E4F
:1003D800EF29A0140800A01008006508803A3A3EEA
:1003E800031C002A1530D1000230E3260A128A11B4
:1003F8001630D1000330E32E6508803A923E031888
:100408000F2A1330D1000230E3260A128A11143061
:10041800D1000330E32ED601E51F232A6508D40056
:10042800D501D41BD503D409D509D40A0319D50A93
:100438005408D7005508D800D601D60A282A6508D6
:10044800D700D801D71BD8030A30CC00CD015808F3
:10045800CF005708CE0027230A128A114C08D9006A
:10046800560803193E2AD908031D3C2A1030442A8D
:100478001C30442AD908031D432A1230442A59083B
:10048800D1000230E3260A128A110A30CC00CD01CD
:100498005808CF005708CE006C230A128A114C085E
:1004A800D900D1000330E32E6508803A3A3E031C98
:1004B800672A1530D1000030E3260A128A11163057
:1004C800D1000130E32E6508803A923E0318762A5F
:1004D8001330D1000030E3260A128A111430D100FB
:1004E8000130E32ED601E51F8A2A6508D400D5011C
:1004F800D41BD503D409D509D40A0319D50A54083D
:10050800D7005508D800D601D60A8F2A6508D70023
:10051800D801D71BD8030A30CC00CD015808CF002A
:100528005708CE0027230A128A114C08D90056080A
:100538000319A52AD908031DA32A1030AB2A1C3099
:10054800AB2AD908031DAA2A1230AB2A5908D100B0
:100558000030E3260A128A110A30CC00CD0158086F
:10056800CF005708CE006C230A128A114C08D90014
:10057800D1000130E32E83126408803A393E031C0F
:10058800CF2A1530D1000030E3260A128A1116301E
:10059800D1000130E32E6408803A933E0318DE2A26
:1005A8001330D1000030E3260A128A111430D1002A
:1005B8000130E32ED601E41FF22A6408D400D501E5
:1005C800D41BD503D409D509D40A0319D50A54086C
:1005D800D7005508D800D601D60AF72A6408D700EC
:1005E800D801D71BD8030A30CC00CD015808CF005A
:1005F8005708CE0027230A128A114C08D90056083A
:1006080003190D2BD908031D0B2B1030132B1C308D
:10061800132BD908031D122B1230132B5908D100A4
:100628000030E3260A128A110A30CC00CD0158089E
:10063800CF005708CE006C230A128A114C08D90043
:10064800D1000130E32ED101CD1F312BCC09CD09CA
:10065800CC0A0319CD0AD101D10ACF1F3A2BCE09F2
:10066800CF09CE0A0319CF0A0130D106D201D3012E
:100678004D084C0403195F2BD001D00ACD1B482B21
:100688000310CC0DCD0D412B0310D20DD30D4D0809
:100698004F02031D512B4C084E02031C5B2B4C08C8
:1006A800CE024D08031CCF03CF0252140310CD0C09
:1006B800CC0CD00B482B51080319672BD209D3094E
:1006C800D20A0319D30A5308CD005208CC000800F7
:1006D800D101CF1F762BCE09CF09CE0A0319CF0A35
:1006E800D101D10ACD1F7D2BCC09CD09CC0A031924
:1006F800CD0A4D084C0403199C2BD001D00ACD1B00
:10070800892B0310CC0DCD0D822B4D084F02031DF4
:100718008F2B4C084E02031C982B4C08CE024D0818
:10072800031CCF03CF020310CD0CCC0CD00B892BAC
:1007380051080319A42BCE09CF09CE0A0319CF0AF1
:100748004F08CD004E08CC0008000E30A010201035
:10075800A01120112012D1000030E3260A128A11BC
:10076800E21EB82B2214B92B2210AA1CCB2B063060
:10077800D1000130E3260A128A111530D100023067
:10078800E3260A128A111B30D1000330E32E2A1DFA
:10079800DD2B0730D1000130E3260A128A1113300D
:1007A800D1000230E3260A128A111B30D10003302F
:1007B800E32EAA1EEF2B0130D101D10AE3260A123B
:1007C8008A110530D1000230E3260A128A11153049
:1007D800D1000330E32E2A1F012C0230D100013052
:1007E800E3260A128A110530D1000230E3260A12E4
:1007F8008A111830D1000330E32E2A1E132C03303F
:10080800D1000130E3260A128A110530D1000230E6
:10081800E3260A128A110E30D1000330E32EAA1DF6
:10082800252C1030D1000130E3260A128A110E302F
:10083800D1000230E3260A128A110F30D1000330AA
:10084800E32E2A1C392C0430D1000130E3260A1289
:100858008A110F30D1000230E3260A128A111A30A9
:10086800D1000330E326A2140800AA1F08000830AC
:10087800D1000130E3260A128A110C30D10002306F
:10088800E3260A128A110C30D1000330E32E8312BA
:10089800BF08031D552CB2080319F21B552C8610EE
:1008A800562C86143208083A031D842D0F30D100C7
:1008B8000030E3260A128A116608D1000130E326C7
:1008C8000A128A11A0102010A01120112012660807
:1008D800013A0319852C033A0319A32C013A031989
:1008E800BB2C073A0319FA2C013A0319122D033AC3
:1008F8000319302D013A0319482D0F3A0319662DB3
:10090800E22EDC018316E21F8E2C620882270A126F
:100918008A11942C62088312DD00DE01DD1BDE03E0
:100928005C080319992C10309A2C1230D10002302F
:10093800E3260A128A115D08D1000330E32E8316DC
:1009480064080319B12C83120230D101E3260A127C
:100958008A111130D1000330E32E83120230D10105
:10096800E3260A128A110F30D1000330E32EDC018E
:100978008316E51FC42C650882270A128A11CA2C1F
:1009880065088312DD00DE01DD1BDE030A30CC00C2
:10099800CD015E08CF005D08CE0027230A128A1118
:1009A8004C08DF005C080319E02CDF08031DDE2C6F
:1009B8001030E62C1C30E62CDF08031DE52C123025
:1009C800E62C5F08D1000230E3260A128A110A30A9
:1009D800CC00CD015E08CF005D08CE006C230A1262
:1009E8008A114C08DF00D1000330E32E8316660815
:1009F8000319082D83120230D101E3260A128A1145
:100A08001130D1000330E32E83120230D101E326E6
:100A18000A128A110F30D1000330E32E0A30CC00BD
:100A280083166708FB260A128A11DF00DF08031DF8
:100A38001F2D1230202D5F08D1000230E3260A1244
:100A48008A110A30CC008316670817270A128A1100
:100A5800DF00D1000330E32E8316680803193E2D0A
:100A680083120230D101E3260A128A111130D10013
:100A78000330E32E83120230D101E3260A128A11D1
:100A88000F30D1000330E32E0A30CC0083166908FA
:100A9800FB260A128A11DF00DF08031D552D1230CC
:100AA800562D5F08D1000230E3260A128A110A3057
:100AB800CC008316690817270A128A11DF00D100B3
:100AC8000330E32E0A30CC0083166A08FB260A128C
:100AD8008A11DF00DF08031D732D1230742D5F08A3
:100AE800D1000230E3260A128A110A30CC0083169C
:100AF8006A0817270A128A11DF00D1000330E32E93
:100B08003208053A031D972D831624080319932DDF
:100B180025080319932D8312A0102010BF2A8312D1
:100B28004108B20008003208073A031DA62D8316B3
:100B380023080319932D27080319932D8312A01056
:100B48002010582A2B082A040319AB2DA92B221090
:100B5800E11BB02DF31EC22DA0163208003A03196E
:100B6800C42D013A0319F62D033A03199A2E013AB6
:100B780003199A2E053A0319642EE22EA012B12DFC
:100B88006408803A703E0318DD2D83166408031943
:100B9800DD2D13308312D1000030E3260A128A11AA
:100BA8001430D1000130E3260A128A112010A01057
:100BB800E12DA5210A128A112014F31EE82D013017
:100BC8000D210A128A11F32D1230D1000230E326CA
:100BD8000A128A111230D1000330E32620122011A4
:100BE800A01108006408803A703E03180F2E83167F
:100BF800640803190F2E13308312D1000030E32646
:100C08000A128A111430D1000130E3260A128A111F
:100C18002010A010132EA5210A128A112014711F6A
:100C28005A2E0E30D1000230E3260A128A110F30F4
:100C3800D1000330E3260A128A112210562E003002
:100C48000D210A128A11F32D0A30CC006708FB2601
:100C58000A128A11DF00DF08031D342E1230352EE8
:100C68005F08D1000230E3260A128A110A30CC004C
:100C7800670817270A128A11D1000330E3260A12DF
:100C88008A112015E21C4A2EE21E572EA015582E56
:100C98001230D1000230E3260A128A111230D10034
:100CA8000330E3262011A01120120800E11B232E97
:100CB8003E08003A0319282E013A03194C2E582EE3
:100CC800A5210A128A112015E21C6C2EE21E6E2E36
:100CD800A0156F2EA0112012611D752E6119E21E3C
:100CE800902E0A30CC006708FB260A128A11DF0012
:100CF800DF08031D812E1230822E5F08D1000230DA
:100D0800E3260A128A110A30CC00670817270A124C
:100D18008A11D1000330E32E1230D1000230E326CD
:100D28000A128A111230D1000330E32E1530D10097
:100D38000030E3260A128A111230D1000130E3266E
:100D48000A128A112011A011A0102010A016201636
:100D5800E21ED82E3208023A031DB42E3D08B52EE5
:100D68003C088316C6000A30C70193270A128A1165
:100D780034270A128A114C08DF005F080319C62EAF
:100D88005F08C72E1230D1000230E3260A128A11FA
:100D98000A309F270A128A115E270A128A114C0804
:100DA800DF00D1000330E32E1230D1000230E326F9
:100DB8000A128A111230D1000330E32E0800D30042
:100DC80004305302031808000310510D123E84002A
:100DD8009A300318013EFF000A168A150020D20037
:100DE8005308243E840052088313800008008312AD
:100DF800CD00CF014C080319152FCE01CE0ACC1B0C
:100E0800082F0310CC0D022F0310CF0D4C084D02F4
:100E1800031C122F4C08CD024F140310CC0CCE0B20
:100E2800082F4F0808008312CE000830CF00D001E9
:100E38004E08CD0007300310CD0CFF3E0310031DF4
:100E4800202F500D4D04D0000310CE0D4C08500239
:100E5800031C302F4C08D002CF0B1C2F5008080061
:100E6800D101D2014D084C040319592FD001D00AE1
:100E7800CD1B422F0310CC0DCD0D3B2F0310D10DF0
:100E8800D20D4D084F02031D4B2F4C084E02031C78
:100E9800552F4C08CE024D08031CCF03CF02511426
:100EA8000310CD0CCC0CD00B422F5208CD005108AA
:100EB800CC0008004D084C0403197D2FD001D00A3E
:100EC800CD1B6A2F0310CC0DCD0D632F4D084F029B
:100ED800031D702F4C084E02031C792F4C08CE02BC
:100EE8004D08031CCF03CF020310CD0CCC0CD00B44
:100EF8006A2F4F08CD004E08CC0008008312DA0094
:100F0800DB01DA1BDB03DA09DB09DA0A0319DB0A7E
:100F18005A08DD005B08DE00DC01DC0A08008312E9
:100F2800CC00CD01831647088312CF0083164608EC
:100F38008312CE000800CC00CD0183164708831227
:100F4800CF00831646088312CE00080083123F0B99
:100F5800EC2FBE08031DEC2F6408803A8E3E031860
:100F6800B92F8316E408031DEC2F8312A01721164E
:100F7800E02F8312AE08031D08003230A11621139A
:100F8800AE008316D101D10A08008312AE08031DF2
:100F980008003C30A1162117AE0002308316D1009C
:100FA80008008312AE08031D08003230A112211375
:100FB800AE008316D101080083165108003A0319C0
:100FC800BD2F013A0319C92F033A0319D52FF12F61
:100FD8008312A013A112211321120800630883129F
:100FE800E700E21DF92F0330FA2FB4308316ED0025
:060FF800EE01F1170800F4
:1010060093300317870002308800B0309C00903080
:101016009D0030309E0083169C01F7309D00033002
:101026009E000800753083168F00413081006030C5
:101036008B008C018D0183128C018D0183168E012C
:1010460007309C009701A1308312810015308B1266
:101056009000FC308F0017308E0007300C10920085
:101066009101323083169200831297019D01603000
:101076008B048B1408003608263E84000030851B3E
:101086000130831780003608443E84000030091B77
:101096000130800036084A3E84000030891A01304B
:1010A60080003608383E84000030891B01308000FD
:1010B6003608323E84000030891801308000360838
:1010C600203E84000030091A0130800036082C3E8C
:1010D6008400003009190130800036083E3E840045
:1010E6000030051B013080000630B60A36020318B0
:1010F600B601D401D201D20AD3010630CC0054087D
:10110600E2200A128A15CF00203ED000530850076D
:10111600D1008400800803199228D201972806304E
:10112600D30A5302031C802852080319C328540803
:10113600A03E840083138008031DAB285408A03EFC
:1011460084008001800A5408A03E84008317DB28AF
:101156005408A83E840083178008031DDC28540821
:10116600A03E84003230000254080318BE28A03E78
:101176008400800ADC28A83E84008001800AD828E2
:101186005408A03E8400831380080319CF2854080E
:10119600A83E84008001800A5408A03E8400800195
:1011A6005408A83E8400831780015408A03E84009A
:1011B60080010830D40A5402031808007D28CE00A6
:1011C600CD014C084E18CD070310CC0D0310CE0CE4
:1011D600CE08031DE4284D080800831628080319C5
:1011E6000A2968260A128A15FA27621EFC28621244
:1011F60003298316DE01DB018312B901B90A6216DF
:10120600013026260A128A15A801D701A129290824
:1012160003191D29013026260A128A158312621E19
:101226001829621268260A128A15F727A901D7011A
:10123600D70AA1292A0803192F29013026260A12BE
:101246008A158312621E2B29621268260A128A15D3
:10125600F7270230AA0164292B0803194129013016
:1012660026260A128A158312621E3D2962126826F4
:101276000A128A15F7270330AB0164292C080319D3
:101286005329013026260A128A158312621E4F2917
:10129600621268260A128A15F7270430AC016429FF
:1012A6002D0803196629013026260A128A1583128B
:1012B600621E6129621268260A128A15F72705300E
:1012C600AD01D700A129AE0803192F080319A129DA
:1012D600013026260A128A15AE01AF01A129831212
:1012E600621E7629472F3F30A4001C30A5007830B7
:1012F600A600A70108000A128A11BF220A128A153F
:101306000A128A11F1212010A01008000A128A116F
:10131600A5210A128A152014A6017C290A128A110F
:1013260079210A128A1586290A128A114D210A1272
:101336008A15862924270A128A1586295708003A0B
:1013460003197229013A03197E29033A03198929D7
:10135600013A03199129073A03199729013A031902
:101366009D29B52908003208083A0319C22932080E
:10137600023A0319C2293208033A031D032AC00898
:10138600031D032A3208023A031DE029E21DD02973
:101396003D088316C200C301DE293D08EC270A1268
:1013A6008A1588260A128A154D088316C3008312E9
:1013B6004C088316C200F316FB293208033A031DB4
:1013C600FD29E21DEB293C088316C000C101F9295D
:1013D6003C08EC270A128A1588260A128A154D0837
:1013E6008316C10083124C088316C0008312E117CE
:1013F600831261113F0B022AB201B20A032AB2011B
:10140600E21C142AF11C0D2A3F0B1C2E8316A80180
:10141600A80A142ABF080319092A83162808031DD7
:101426001C2EFD272E0803193A2A2F0803193A2ADB
:10143600FA272A08303903193A2A731B272A193042
:101446007317B70072113A2AB708031972193A2AA4
:1014560001307215F216BE01BF01BF0AB201B20A0F
:10146600F312E113BD01BC0126260A128A15FA27DA
:10147600BF08031D532B8316280803197C2AA608C8
:10148600031D7C2AA708031D7C2A83123208023A10
:10149600031D582A4108B200F312BD010130262669
:1014A6000A128A1583126111042E2B082A04031DC1
:1014B600772A6408803A703E0318652A8316E40882
:1014C600031D772A83120F30BF01BF0AB201B20A89
:1014D600F312BD018316D000A1260A128A15033025
:1014E60026260A128A15042E003026260A128A1586
:1014F600042E29080319A72AAB08031DA72AA30847
:10150600031DA72A83122B082A04031DA72A3208C3
:101516000319912A3208023A031DA22A3208023A16
:10152600031D9A2A4108B200F312BD01A22A32080D
:10153600C1000230B2000330BD000530C0000130EA
:1015460026260A128A15042E8316AF08031DAF2A13
:1015560003172F080319E72A0313A608031DE72A12
:10156600A308031DE72A83123208023A0319BF2A89
:101576003208083A031DE72AFD272F08031D731BAF
:10158600CB2A7317FA27B808031DCB2A3230B800C6
:10159600FA27B808031D042E1430B8000130262699
:1015A6000A128A1583123208023A031DE22A023011
:1015B6003D02031CDF2ABD030530C000042E0030A7
:1015C60026260A128A15042EF727AE08031DEF2ACF
:1015D60003172E080319252B0313A708031D252B14
:1015E600A308031D252B83123208023A0319FF2A8A
:1015F6003208083A031D252BFD272E08031D731BF1
:101606000B2B7317FA27B808031D0B2B3230B800C3
:10161600FA27B808031D042E1430B8000130262618
:101626000A128A1583123208023A031D202B0A3049
:101636003D020318DF2ABD0ADF2A003026260A12D9
:101646008A15042EF7272C080319362BF21F312B87
:101656000130F11726260A128A15042E0030262696
:101666000A128A15042E2D080319462BF21F412B48
:101676000130F11326260A128A15042E003026267A
:101686000A128A15042EAE08031D4E2BAF08031945
:101696002A080319042E003026260A128A15042E5B
:1016A600FD272B0803197E2B2E0803197E2B031307
:1016B600A908031D7E2B83123208083A0319042E4B
:1016C600731B6B2B19307317FA27B7007211042E90
:1016D600B70803197219042E72153208C1000830B2
:1016E600B2000A30F311E601E60AC00001302626F0
:1016F6000A128A15042E031328080319A22B831233
:101706003208033A031D8C2BB201B20AE113BC0165
:10171600512A3208083A031D9A2B4108B2000A30B2
:101726008316D200013026260A128A15042EA9260F
:101736000A128A15023026260A128A15042E2B084A
:101746000319DD2BA908031DDD2B83123208073A86
:101756000319DD2B8316A608031DDD2BA708031D21
:10176600DD2B83122B082A04031DDD2B3208083AD1
:10177600031DD02BF31D042E0A30C0000930E60AE3
:101786006602031CC82B4108B2000A308316D20039
:10179600013026260A128A15042E3E0BD82B01305C
:1017A600BE0126260A128A15042E003026260A12A3
:1017B6008A15042E83162A080319072CA608031D6A
:1017C600072CA708031D072C83122B082A04031DC8
:1017D600072C3208083A0319072C3208053A031970
:1017E600042E3208073A0319042EBE08031D022CE4
:1017F6000130BE01BE0A26260A128A15042E0030C2
:1018060026260A128A15042E83162C0803192E2C56
:10181600A508031D2E2CA608031D2E2CA708031DA4
:101826002E2C83123208053A03192E2C2B082A0473
:10183600031D2E2C3208083A03192E2CF21F292CD0
:101846000130F11726260A128A15042E00302626A4
:101856000A128A15042E83162D080319552CA4087E
:10186600031D552CA608031D552CA708031D552C32
:1018760083123208053A0319552C2B082A04031D36
:10188600552C3208083A0319552CF21F502C0130FA
:10189600F11326260A128A15042E003026260A126D
:1018A6008A15042E831629080319812CAB08031DFB
:1018B600812CA308031D812CA608031D812CA708D3
:1018C600031D812C83122B082A04031D812C320848
:1018D600083A0319812C3208033A031D772CB2010A
:1018E600B20AE113BC017C2C0330B200BC00053007
:1018F600C000013026260A128A15042EFD272B0861
:1019060003199D2C2F0803199D2CFA273208083A33
:1019160003199D2C731F652BB70803197219042E22
:1019260072153208C1000730B200013026260A12AD
:101936008A15042EFD272C080319B92C2D08031926
:10194600B92CFA273208083A0319B92C731F652BEC
:10195600B70803197219042E72153208C100053032
:10196600B200013026260A128A15042EFD272B08FE
:101976000319CE2C29080319CE2C731F652BFA27C1
:10198600B70803197219042E01307215F3142626AE
:101996000A128A15042E0313AF08031DD62C03174B
:1019A6002F080319792DFA273208073A0319792DDA
:1019B6008316A608031D792DA308031D792D83120E
:1019C6002B082A04031D792DFD272F08031D731BE1
:1019D600F32C7317FA27B808031DF32C3230B8001E
:1019E600FA27B808031D042E1430B8000130262645
:1019F6000A128A1583123208033A031D082D023093
:101A06003C02031CDF2ABC03DF2A3208083A031D06
:101A1600712D0A30C0008316D200F3194B2D042E07
:101A260083166208803A883E031C042EE203042EC5
:101A360083160030E40803190130E400042E8316EF
:101A46006508803A903E031C042EE503042E831697
:101A56000030E60803190130E600042E83166708F5
:101A66000319042EE703042E83160030E808031931
:101A76000130E800042E831669080319042EE903D1
:101A8600042E023083166A02031C042EEA03042E77
:101A960083126608013A0319132D033A03191B2D05
:101AA600013A0319222D073A03192A2D013A03197F
:101AB600312D033A0319372D013A03193E2D0F3AFA
:101AC6000319442D7B2A1F3067020318E7030630EB
:101AD600B200143061118316D500042E3E08003A78
:101AE6000319662D013A03197B2A7B2AF727AE08CC
:101AF600031D812D03172E080319042E0313A708AF
:101B0600031D042EA308031D042E83122B082A048A
:101B1600031D042EFD272E08031D731B992D731715
:101B2600FA27B808031D992D3230B800FA27B808ED
:101B3600031D042E1430B800013026260A128A1519
:101B460083123208033A031DAE2D0A303C020318F5
:101B5600DF2ABC0ADF2A3208083A031DFC2D0A30A8
:101B6600C0008316D200F319DB2D042E83166208FB
:101B7600803A773E0318042EE20A042E8316E51FE8
:101B8600042EE50A042E0A30831667020318042E73
:101B9600E70A042E1130831669020318042EE90A97
:101BA600042E0A3083166A020318042EEA0A042E4B
:101BB60083126608013A0319B92D033A03191B2D3E
:101BC600013A0319C12D073A03192A2D013A0319BF
:101BD600C62D033A0319372D013A0319CD2D0F3AB5
:101BE6000319D42D7B2A5A30670203186A2DE70A97
:101BF6006A2D3E08003A0319F62D013A03197B2A8D
:101C06007B2AF727A608031D1C2EA708031D1C2EDA
:101C1600A308031D1C2EA208031D1C2EA108031DCC
:101C26001C2EA408031D1C2EA508031D1C2E7313B1
:101C3600F3158316A801AB01A901AF01AE01AA01F4
:101C4600AC01AD0108008312CC008810522E74300E
:101C56008316C4009A30C5000C300317BE00BF01BE
:101C66000310BF0CBE0C0310BF0CBE0C632E9830C5
:101C76008316C4009A30C5000430302E8030831697
:101C8600C4009A302E2E8C308316C4009A302E2E25
:101C96005C308316C4009A30C5001830302E4C08CC
:101CA600003A03192A2E013A03193A2E033A031968
:101CB600412E013A0319462E073A03194B2E632E7D
:101CC600FA27B0018316EF0108008312CC014C08F5
:101CD600243E8400043083138001CC0A4C02031C8A
:101CE6006A2EA001A101A201A301C2018316DB0194
:101CF6008312B901B90AFD27B801B901BA01BB01BE
:101D060070107111F01270130800D001D1014C1C33
:101D1600922E4E08D0070318D10A4F08D107031098
:101D2600CE0DCF0D0310CD0CCC0C4D084C04031D6D
:101D36008A2E5108CD005008CC00080083129D0160
:101D460088101211081183168C100800BF01F310B9
:101D5600F210F3133E0BB42E8316BC01BD01F21331
:101D6600D92E831666080319AF2E3D083C040319C5
:101D7600F21FD92EE7080319B22E8312E21DC82ED0
:101D860083166708BC00BD01D92E831667080A169C
:101D96008A11D3220A128A1588260A128A154D0834
:101DA6008316BD0083124C088316BC008312E11310
:101DB6008316C001C101F2128312B2018316B80163
:101DC600B90183122B082A040319EC2EF1260A12F4
:101DD6008A152B082A04031D0800A12E83122A182F
:101DE600F119F72E2A10A210AA18F01BFB2EAA1022
:101DF6002A197118002F2A117412AA1D162F6508A8
:101E0600CC00CD01CC1BCD034D08803ACE008030EE
:101E16004E02031D122F8316690883124C02031CFF
:101E2600162FFA27AA11FA272A1A72181B2F2A1216
:101E3600AA1AF4191F2FAA122A1BF41A08002A1329
:101E4600080006308312A4005030A500F11E0800D9
:101E5600B508031D452F013026260A128A150317D9
:101E6600340E0F39E42702300A128A11E3260A12C9
:101E76008A15FD273408E42703300A128A11E3265F
:101E86001430B500F112080083165E08003A0319F3
:101E9600562F013A0319732F033A0319892F013A72
:101EA6000319B72FE32F3708360435043404031D0E
:101EB60008005B08243E84008312390883138004DB
:101EC6003908403A031D7F2F83160430DB0A5B0274
:101ED6000318DE0A8312B901B90A0A30F727F22F6E
:101EE6003708360435043404031D08008312390804
:101EF600C204403A0319822F0310B90D702F8316BE
:101F0600DE0A8312B901B90A8316AA2F37083604E6
:101F160035043404031D080003173808FA27A00403
:101F2600FD273908FA27A104FD273A08FA27A20453
:101F3600FD273B08FA27A304FD273A08043A38048C
:101F460039043B04031DB12F03300313DE000317CE
:101F5600B801B80AB901BA01BB01702F0310B80D58
:101F6600B90DBA0DBB0D702F37083604350434048D
:101F7600031D0800C72F7014D62F7115D62F7013A6
:101F8600C52F7017F016D62F83123908013A031998
:101F9600BE2F033A0319C02F013A0319C22F073A7D
:101FA6000319C42FD62F3908043A031DDF2F043036
:101FB6008316DE008312B9016430B90A8316F22F44
:101FC600080083120313D4000F30D4055408D1003F
:101FD6000800CC003C30CD01CE00CF010800B40093
:101FE600B501B601B7010800831603130800831272
:0A1FF6000313080083160317080008
:102008002030031398009030831298000C30831608
:1020180099000C128C16981618128312981708003B
:102028003921E118621B48289930E1103C21D00081
:1020380000307018803071194038F01A2038701B41
:102048001038D1006430D20003303921CC00D030B0
:10205800CD01CE01CF01D3200A168A114D083C21AB
:10206800E40039214C083C21E3006408D3006308EC
:10207800D4003921621783160530DD01DC00831294
:1020880087160C1283160C168312E21F08002C0800
:10209800FE3ECC002D080318013EFF3ECD00C030A7
:1020A800CE01CF01D3200A168A114D083C21E20047
:1020B80039214C083C21E10039212C08BF3E84001D
:1020C800831700083C21E00039212C08BE3E84001B
:1020D80000083C21E4006008E30064086206031D70
:1020E800772863086106031DCE284008883A031D37
:1020F800CE280A30E800E9013921AA133C21410819
:102108003921E4003C2143083921E500831662089F
:10211800031744073921E3003C21C51F9528F11511
:102128009628F1113C21451F9B28F0179C28F01395
:102138003C21C51EA1287114A22871103C21451EFE
:10214800A728F114A828F1103C21C51DAD28F014CA
:10215800AE28F0103C21451DB3287015B428701125
:102168003C21C51CB928F015BA28F0113C21451CA2
:10217800BF287016C02870123921E2147019E210B5
:1021880039211030CC01CD01CE00C030CF0125213E
:102198000A168A113921AC01AD01E2130800DE00EC
:1021A800DF01E001DA01DB01DC01DD014F085D023E
:1021B800031DE8284E085C02031DE8284D085B0251
:1021C800031DE8284C085A02031820295E088400D9
:1021D80083170008D000D1016006D2005108D3004F
:1021E8005208D4009830D5010310D40DD50D5507E9
:1021F800FF001230540784000318FF0A0A168A15D4
:1022080000200A168A11D6000A168A1500200A1616
:102218008A11D7005F08D900D80156085806DF0090
:1022280057085906E000DE0ADA0A0319DB0A03191F
:10223800DC0A0319DD0ADA286008CD005F08CC0043
:102248000800D000D1000130CE020030031CCF03BB
:10225800CF024E0A03194F0A0319080051088400D7
:102268004C0883178000D10A27298312031308001A
:102278008316031708003F0B5D2AE11F4C298316BC
:1022880041084004031D4C29A801A80A8312E11340
:1022980083122B082A04031DC329711FBB29C329D4
:1022A8006408803A703E03185D298316E408031D0C
:1022B800AD290F308316D0006308033E8312D20085
:1022C800003003180130D300803A803C031D6E298A
:1022D80052086302031C7529F214DA22BC01BD01FD
:1022E800A429DA226308FD3E8312D200FF300318C6
:1022F8000030D300803AD40080305402031D862970
:10230800630852020318F21CA529F210DA226608A3
:102318000319A5298312E21D952983166708BC00B5
:10232800732983166708D3220A128A1588260A1683
:102338008A114D088316BD0083124C088316BC0011
:10234800F217DA22E608031DC329BC01BD01F21702
:10235800C329D008031DC329A801A80AC3298316C5
:102368000F30BC01BD01F217F210D000C3293E089E
:10237800003A03195429013A0319B329C329741DD2
:10238800CC29F2108316BC01BD01F2178312AA14DE
:10239800741ED529F2108316BC01BD01F2178312F1
:1023A8002A15721C0A2A83122A16F21EE829831695
:1023B800ED01EE01F214BC01BD01F217F01CE62993
:1023C800F313112AF317112AF210F313E11AFC2957
:1023D8008316BC01BD01F2178312E21DF5290430F2
:1023E800F629F0308316BA00BB018312E116112AD0
:1023F80083163B083A04031D112A83123F0B112A46
:10240800F21A112A8316A801A80A112A8312E11EBA
:10241800112AE1128316BA01BB01711B72185A2ADC
:10242800F01C192AF210F3131B2AF214F31783165F
:10243800BC01BD01F2178312611A3B2AE21D292A49
:1024480083166A08B800B901382A83166A08D322A5
:102458000A128A1588260A168A114D088316B900A9
:1024680083124C088316B80083126116672A650820
:10247800D200D301D21BD3035308803AD400803052
:102488005402031D4B2A8316690883125202031C47
:10249800672ADA2239083804031D672A7113F313EF
:1024A8008312BE080319F214F217672A8312611205
:1024B800672AF31E672A831643084204031D672A06
:1024C800A801A80AF312741F812A83120313621C3D
:1024D800742A2A146210F2108316BC01BD01F2138B
:1024E8008316DF08031D912A0530DF0000300A1229
:1024F8008A1526260A168A11912A8312031362184E
:10250800912A62143F0B8C2A8316BC01BD01F21775
:102518000A128A15A1260A168A11F419952AF41E98
:10252800CB2A0F308316D000F21EA62AED01EE0149
:10253800F214BC01BD01F217F01CA42AF313080021
:10254800F3170800F21083126219BD2A8316BC0122
:10255800BD0183123F0BB12AF217E21DB52A0430E0
:10256800B62AF0308316BE00BF0183126215AA1680
:10257800080083163F083E04031D080083123F0B22
:102588000800F21A08008316A801A80A0800831296
:10259800621D080062118316BE01BF010800831284
:1025A800CC003C30CD01CE00CF01080083160313C8
:1025B80008008C1E002B8C12180806390319E62A0D
:1025C800181218161A08FD00E21BFE2A00302D0208
:1025D800103003192C020318FE2A2C08C03E840070
:1025E8007D0883178000AC0A0319AD0A03308316EF
:1025F800C800C90183168C1683120C1E1C2B831667
:102608000C1E1C2B5C080319142B5D08D03E84009B
:1026180083170008831299008316DC03DD0A1A2B3E
:1026280083126213831603300C12CB0083120C1230
:102638000B1D252BA130831281000B1193230A1641
:102648008A1183120C1C862BFC308F0017308E00E9
:102658000C108316CE0A4908480403193C2B013094
:10266800C802031CC9034908480483120319E21766
:1026780083164B080319442BCB0B442B8312871268
:102688000A3083164E02031C862BCE01CD0A831214
:102698003508031DB5033A08031DBA033808031D9E
:1026A800B8032F08031DAF032E08031DAE038316BE
:1026B80037083604350434040319832B0130831298
:1026C800C400C501C601C7018316B40283124508B8
:1026D800031C450F702B722B8316B5028312460814
:1026E800031C460F782B7A2B8316B60283124708F1
:1026F800031C470F802B822B8316B7028316831285
:1027080061179024831203134B08FF004A088A00BC
:1027180049088400480E8300FE0E7E0E0900F11A57
:1027280008007116061C7C2C71127C2C711EAA2BB9
:102738008312A80A0319A90A0030290231300319A3
:102748002802031C0800A801A90108000030831210
:1027580029022A3003192802031CA72B003029025A
:10276800313003192802A8010318A82BA80AA901C7
:102778008316CA01CA0A0800711AD32B8312A80A41
:102788000319A90A003029021B3003192802031C67
:1027980008008312A801A9018316CA0108000030A5
:1027A80083122902133003192802031CCD2B003091
:1027B80029021B30031928020318CD2B0230A80167
:1027C800A80AA9018316CA0003178030B001B10115
:1027D800B201B3010313B3000030B201B101B0017B
:1027E8000800711EFF2B8312A80A0319A90A0030DA
:1027F80029020630C92B8312290828040319CD2B76
:10280800003029020630031928020318CD2B0330A3
:10281800A801A80AA9018316CA000800711A2C2C5D
:102828008312A80A0319A90A003029020C300319D7
:102838002802031C080083163003310432043304D1
:10284800031DCD2B30082D2504300313CA000800C2
:1028580083122908280400300319402C2902063065
:102868000319280203183F2C0230A801A80AA9015D
:102878008316CA005C2C003029020530031928028F
:10288800031C582C003029020C3003192802A80117
:102898000318592C0230A80AA9018316CA00300867
:1028A8002D250A168A115C2CA801A9018316CA01D4
:1028B80003133003310432043304031D652C043040
:1028C800CA000310B30CB20CB10CB00C080003170B
:1028D8003308B7003208B6003108B5003008B40034
:1028E80083120313A801A9018316CA01F11608006F
:1028F800831603134A08003A03199A2B013A03195D
:10290800C02B033A0319F52B013A0319122C073A85
:1029180003196B2C8F2C0800052D03173F083E0464
:102928000319EC2C831203133C250A168A15002080
:102938000A168A11FB000A168A1500200A168A113F
:10294800FC00F6007B08F50012250A168A11B00A69
:102958003C250A168A1500200A168A11FB000A1659
:102968008A1500200A168A11FC00FA007B08F90073
:1029780004300310FA0CF90CFF3E031DBD2C790836
:102988004C3E84009A300318013EFF000A168A154F
:1029980000200A168A118316D9007B080F394C3E8D
:1029A80084009A300318013E8312FF000A168A1524
:1029B80000208316D8008312881483160130EF0193
:1029C800EF0A0317BE020030031CBF03BF02080052
:1029D80024256330EF00080059080319F52CD903A2
:1029E80008008312023088108316EF000800580888
:1029F8000319002DD80308008312B00A8316EF01CB
:102A0800080083166F08003A0319912C013A03193C
:102A1800F02C033A0319FB2C112D08000F309D00F0
:102A28007508831692007608F8007508F7000310F9
:102A3800F80CF70C770883129B0091011215080017
:102A4800831203139D0188101211081183168C102C
:102A580008000317B004031331080317B104031364
:102A680032080317B204031333080317B30408002A
:102A78000310300D83164407840045080318450ADF
:102A88008312FF000800831224080139CC004C0C83
:102A9800031C512DF7271216532DF7271212031373
:102AA800240C0139CC004C0C031C5D2DF72718169B
:102AB8005F2DF72718120313240CCC004C0C013996
:102AC800CD004D0C031C6B2DF72715166D2DF72720
:102AD80015120313240CF0270A168A11031C772DEC
:102AE800F7271B16792DF7271B120313240E01391C
:102AF800CC004C0C031C832DF7279516852DF72742
:102B080095120313240ECC004C0C0139CD004D0C4A
:102B1800031C912DF7279216932DF7279212031372
:102B2800240EF0270A168A11031C9D2DF7279816E4
:102B38009F2DF7279812031325080139CC004C0C58
:102B4800031CA92DFA279116AB2DFA279112FD2700
:102B5800250C0139CC004C0C031CB52DFA2797160F
:102B6800B72DFA279712FD27250CCC004C0C0139FC
:102B7800CD004D0C031CC32DFA279416C52DFA273A
:102B88009412FD27250CF0270A168A11031CCF2D55
:102B9800FA279A16D12DFA279A12FD27250E013900
:102BA800CC004C0C031CDB2DFA271416DD2DFA275C
:102BB8001412FD27250ECC004C0C0139CD004D0C0C
:102BC800031CE92DFA271116EB2DFA271112FD2700
:102BD800250EF0270A168A11031CF52DFA27171659
:102BE800F72DFA271712FD2726080139CC004C0CBF
:102BF800031C012EFA279214032EFA279210FD27A0
:102C0800260C0139CC004C0C031C0D2EFA27981405
:102C18000F2EFA279810FD27260CCC004C0C0139F2
:102C2800CD004D0C031C1B2EFA2795141D2EFA27D8
:102C38009510FD27260CF0270A168A11031C272E4B
:102C4800FA279B14292EFA279B10FD27260E0139F7
:102C5800CC004C0C031C332EFA271514352EFA27FA
:102C68001510FD27260ECC004C0C0139CD004D0C5B
:102C7800031C412EFA271214432EFA271210FD279F
:102C8800260EF0270A168A11031C4D2EFA2718144F
:102C98004F2EFA271810FD2727080139CC004C0CB5
:102CA800031C592EFA2791145B2EFA279110FD2741
:102CB800270C0139CC004C0C031C652EFA279714FD
:102CC800672EFA279710FD27270CCC004C0C0139EA
:102CD800CD004D0C031C732EFA279414752EFA2779
:102CE8009410FD27270CF0270A168A11031C7F2E43
:102CF800FA279A14812EFA279A10FD27270E0139F0
:102D0800CC004C0C031C8B2EFA2714148D2EFA279A
:102D18001410FD27270ECC004C0C0139CD004D0CAA
:102D2800031C992EFA2711149B2EFA271110FD2740
:102D3800270EF0270A168A11031CA52EFA27171446
:102D4800A72EFA271710FD2742080139CC004C0C92
:102D5800031CB12EFA279117B32EFA279113FD27DA
:102D6800420C0139CC004C0C031CBD2EFA279717D6
:102D7800BF2EFA279713FD27420CCC004C0C0139C3
:102D8800CD004D0C031CCB2EFA279417CD2EFA2715
:102D98009413FD27420CF0270A168A11031CD72E1C
:102DA800FA271417D92EFA271413FD27420E0139D2
:102DB800CC004C0C031CE32EFA271A17E52EFA2731
:102DC8001A13FD27420ECC004C0C0139CD004D0CD6
:102DD800031CF12EFA279A17F32EFA279A13FD27C8
:102DE800420EF0270A168A11031CFD2EFA271B141F
:102DF800FF2EFA271B10FD2720080139CC004C0CA8
:102E0800031C092FFA271A160B2FFA271A12FD2767
:102E1800200C0139CC004C0C031C152FFA27111774
:102E2800172FFA271113FD27200CCC004C0C013961
:102E3800CD004D0C031C232FFA271A14252FFA272F
:102E48001A10FD27200CF0270A168A11031C2F2FB1
:102E5800FA271115312FFA271111FD27200E0139F4
:102E6800CC004C0C031C3B2FFA2717153D2FFA27D3
:102E78001711FD27200ECC004C0C0139CD004D0C4C
:102E8800031C492FF72796164B2FF7279612031383
:102E9800200EF0270A168A11031C552FF72716163D
:102EA800572FF72716120313200D200D0139CC00D8
:102EB8004C0C031C622FF7279117642FF7279113E7
:102EC8000313210CCC004C0C0139CD004D0C031C14
:102ED800702FF7271916722FF727191203132108D5
:102EE8000139CC004C0C031C7C2FF72793167E2F3E
:102EF800F72793120313210C0139CC004C0C031C47
:102F0800882FF72799168A2FF72799120313210C70
:102F1800F0270A168A11031C942FF7271316962FE9
:102F2800F72713120313210E0139CC004C0C031C94
:102F3800A02FF7279717A22FF72797130313210E10
:102F4800CC004C0C0139CD004D0C031CAE2FF727DB
:102F58009417B02FF72794130313210EF0270A169E
:102F68008A11031CBA2FF7279A17BC2FF7279A1331
:102F78000313210D210D0139CC004C0C031CC72F64
:102F8800F7271416C92FF72714120313220801393B
:102F9800CC004C0C031CD32FF7271A16D52FF72774
:102FA8001A120313220C0139CC004C0C031CDF2F1E
:102FB800F7279B16E12FF7279B120313220CCC004F
:102FC8004C0C0139CD004D0C031CED2FFA271415BC
:102FD8000800FA2714110800CC00CC0C4C0C01395D
:102FE800CD004D0C08008312031708008316031741
:102FF8000800831203130800FF1B0A2883137F1895
:1030080083170008840A0319FF0A08007F087F391C
:103018008A000408840A0319FF0A82000034003475
:10302800213410344234203463343034843440340E
:10303800A5345034C6346034E734703408348134ED
:10304800293491344A34A1346B34B1348C34C134CA
:10305800AD34D134CE34E134EF34F1343134123478
:10306800103402347334323452342234B534523486
:1030780094344234F7347234D63462343934933465
:10308800183483347B34B3345A34A334BD34D33442
:103098009C34C334FF34F334DE34E33462342434F0
:1030A800433434342034043401341434E63464347E
:1030B800C7347434A4344434853454346A34A5345D
:1030C8004B34B5342834853409349534EE34E5343A
:1030D800CF34F534AC34C5348D34D5345334363428
:1030E800723426341134163430340634D7347634F6
:1030F800F634663495345634B43446345B34B734D5
:103108007A34A7341934973438348734DF34F734B1
:10311800FE34E7349D34D734BC34C734C43448341F
:10312800E534583486346834A73478344034083465
:10313800613418340234283423343834CC34C93454
:10314800ED34D9348E34E934AF34F9344834893421
:10315800693499340A34A9342B34B934F5345A34DF
:10316800D4344A34B7347A3496346A3471341A34DD
:1031780050340A3433343A3412342A34FD34DB34CC
:10318800DC34CB34BF34FB349E34EB3479349B3499
:1031980058348B343B34BB341A34AB34A6346C34D7
:1031A80087347C34E4344C34C5345C3422342C34D5
:1031B80003343C3460340C3441341C34AE34ED34C4
:1031C8008F34FD34EC34CD34CD34DD342A34AD3491
:1031D8000B34BD3468348D3449349D3497347E348F
:1031E800B6346E34D5345E34F4344E3413343E344D
:1031F80032342E3451341E3470340E349F34FF343C
:10320800BE34EF34DD34DF34FC34CF341B34BF3408
:103218003A34AF3459349F3478348F348834913405
:10322800A9348134CA34B134EB34A1340C34D134E8
:103238002D34C1344E34F1346F34E13480341034D9
:10324800A1340034C2343034E334203404345034EC
:10325800253440344634703467346034B9348334A8
:1032680098349334FB34A334DA34B3343D34C33460
:103278001C34D3347F34E3345E34F334B134023451
:1032880090341234F3342234D23432343534423464
:10329800143452347734623456347234EA34B534E0
:1032A800CB34A534A8349534893485346E34F53458
:1032B8004F34E5342C34D5340D34C534E234343449
:1032C800C3342434A034143481340434663474345C
:1032D800473464342434543405344434DB34A73458
:1032E800FA34B73499348734B83497345F34E734D0
:1032F8007E34F7341D34C7343C34D734D3342634C1
:10330800F234363491340634B034163457346634D3
:103318007634763415344634343456344C34D9340F
:103328006D34C9340E34F9342F34E934C83499343F
:10333800E93489348A34B934AB34A9344434583440
:10334800653448340634783427346834C034183443
:10335800E134083482343834A33428347D34CB340F
:103368005C34DB343F34EB341E34FB34F9348B34B7
:10337800D8349B34BB34AB349A34BB3475344A34B8
:1033880054345A3437346A3416347A34F1340A34BB
:10339800D0341A34B3342A3492343A342E34FD34C7
:1033A8000F34ED346C34DD344D34CD34AA34BD34AF
:1033B8008B34AD34E8349D34C9348D3426347C34B0
:1033C80007346C3464345C3445344C34A2343C34B3
:1033D80083342C34E0341C34C1340C341F34EF34BF
:1033E8003E34FF345D34CF347C34DF349B34AF3427
:1033F800BA34BF34D9348F34F8349F3417346E3428
:1034080036347E3455344E3474345E3493342E342A
:10341800B2343E34D1340E34F0341E343F340034E8
:10342800063400345B3400344F34003466340034DE
:103438006D3400347D340034273400347F34003454
:103448006F340034773400347C3400343934003439
:103458005E3400347934003471340034403400343C
:103468005434003400340034383400345C340034CC
:10347800763400340634003474340034783400343C
:10348800503400341C34003473340034463400346F
:103498000034043408340C341034143418341C3414
:1034A800203424342834303460349034C034F03438
:1034B8005E3400342134003459340034213400346B
:1034C8004F3400342134003446340034213400347D
:1034D8003E340034213400343B3400344F3400345B
:1034E8003E340034123400343E3400341534003491
:1034F8003E3400341F34003427340034463400345A
:103508002E340034463400343B3400342F34003435
:103518003B340034223400342E3400342234003456
:10352800273400341F3400342C3400341F34003462
:10382A0064008001840A0406031900340406162C75
:10383A008501C0308316850091010C308312860001
:10384A00013083168600831287018730831687002A
:10385A00831288018316880183128901FE30831638
:10386A0089000317850188018901870183120313DF
:10387A00871286100800F21F612CBA08031D08007F
:10388A000130CC00310A4B2C0310CC0DFF3E031D36
:10389A00492C4C08C2040830B10A3102031C572CC7
:1038AA00C201B1013108073A031D5E2C4630BA0045
:1038BA0008002430BA000800C201B1010800F21B56
:1038CA00682CF31C6F2CF11F6C2C70176D2C701365
:1038DA00F016712CF0127013F31F752C7115762CDB
:1038EA007111F31C7A2C70148E2CF21C822C831604
:1038FA006E086D040319782C8E2C701C8E2C701097
:10390A008312E21D8A2C03308B2CB4308316ED000F
:10391A00EE01701C932C831222159F2CF21C9D2CF5
:10392A0083166E086D0403199D2C8312E21A902CDB
:10393A0083122211F21EA32CA1170800A11308005A
:10394A002030F001F101F201F301F401E101E20199
:10395A008313840044300A168A1515240A168A1518
:10396A00A03083178400E0300A168A1515240A1637
:10397A008A15A03083138400ED300A168A1515249F
:10398A000A168A1520308317840050300A168A15C1
:10399A001524831603170A30E800E9010313B4302B
:1039AA00ED006330EE01EF0083121930E300E4000A
:1039BA00E5000130E6001930E70083010A168A158E
:1039CA00042FF21BEA2CF31C312DE21DEE2CE21E11
:1039DA00F02C2017F12C2013A115252D8312AF08E6
:1039EA00031D080021112114A114F11FFE2C083017
:1039FA00FF2C0D30AF008316D401D40A08008312BD
:103A0A00AF08031D080021152110A114F11F0F2D65
:103A1A000830102D0D30AF0002308316D400080094
:103A2A008312AF08031D080021152114A110F11FEC
:103A3A00202D0830212D0D30AF008316D401080047
:103A4A0083165408003A0319F32C013A0319042D7A
:103A5A00033A0319152D3F2DE219E21E362D2017C0
:103A6A00372D2013A11121112110A1108316D40181
:103A7A008312AF010800E218F11C452DF11208006B
:103A8A00F11E0800B50803196D2D432D0313AF016C
:103A9A00AF0AB32D0313AE01AE0AB32D0313A80167
:103AAA00A80AB32D0313AA01AA0AB32DF11F612D87
:103ABA000313AD01AD0AB32D0313AC01AC0AB32D48
:103ACA000313A901A90AB32D0313AB01AB0AB32D42
:103ADA00831603173708443A0319AE2DB32D350858
:103AEA00503A03198B2D283A0319902DE03A0319FD
:103AFA00952D283A03199A2D083A03199F2D783AD9
:103B0A000319A42D383A0319A92DB32D3408AF3A55
:103B1A000319572DB32D3408873A03194B2DB32DAA
:103B2A003408673A03194F2DB32D34084F3A031955
:103B3A00692DB32D3408473A03195B2DB32D340888
:103B4A003F3A0319532DB32D3408073A0319652D4B
:103B5A00B32D3608BB3A0319742DB32D14308312D2
:103B6A000313B500432D6430F6250A168A15831609
:103B7A000317EA00AA3A0319D82DAA300313E00062
:103B8A003230E101E201E3000530E401E40AE50133
:103B9A00E503E601E60AE701E70AE801E80AE900BF
:103BAA000330EA00142EE0300313DA008312D30143
:103BBA0083165A08840083125308643EF6250A16AF
:103BCA008A15831380008316DA0A83120D30D30A0A
:103BDA005302031CDD2D5B3083166302031C0800AD
:103BEA00C22DCE008B13831603178C1357264E084B
:103BFA0003178D003F3083168C050C1483120C08B2
:103C0A000313CF001A308B17CD00F830CC00CC0B41
:103C1A000C2ECD0B0C2E640057264F080800E030FE
:103C2A008312D100D2015108840083130008CC000A
:103C3A005208643E38260A168A1557260230D10AD7
:103C4A00D0000430CF00BA30CE00CE0B2A2ECF0BD4
:103C5A002A2ED00B2A2E640057260D30D20A520281
:103C6A0003180800182ECD00831603178C18392E56
:103C7A008B1357268C13831603170C1157264D08DE
:103C8A0003178D0003134C0803178C003F3083166B
:103C9A008C0555300C158D00AA308D008C140C1132
:103CAA008B170800831203130800F119F01D6A2EFE
:103CBA00F418642E1E308312C300F4146E2E83127D
:103CCA00C308031D6E2E74176E2E8312C301F410DF
:103CDA007413F01F852E3F0B852EBE08031D852EFB
:103CEA007319802EE21D7C2EB401B40A7E2E3C305C
:103CFA00B4007315882EB408031D882E7415882EF7
:103D0A00B40173117411711CA42E3F0BA42EBE08AA
:103D1A00031DA42E831668080319A42E731A9E2E57
:103D2A008312E21D9A2E02309B2E7830BB00731646
:103D3A00A82E8312BB08031DA82E7416A82E831260
:103D4A00BB01731274126508803A933E031CB22EAB
:103D5A006508803A3A3E031CCA2E3F0BCA2EBE089B
:103D6A00031DCA2E7318C42EE21DBF2E8316D3015B
:103D7A00D30AC22E1E308316D3007314CC2E831698
:103D8A00D308031DCC2E7214CC2E72107310831616
:103D9A006508803A8312CC006508803ACC02031881
:103DAA007218E72E3F0BE72EBE08031DE72E721B83
:103DBA00E22E23307217B300E82EB308031DE82E53
:103DCA007117E82E7213E308031DED2EF415EE2E7B
:103DDA00F4116408803A923E0318FD2EED30E40097
:103DEA00831664080319FB2EF4160800F41208005F
:103DFA006408803A303E031CFB2E5030F42E0A161B
:103E0A008A151D240A168A150A128A1515200A16F9
:103E1A008A150A128A1503200A168A150A168A11A1
:103E2A0004200A168A150A168A15B8250A168A154A
:103E3A000B178B16831603300C148B170A128A156C
:103E4A0026260A168A15831286140A128A11F72060
:103E5A000A168A150A168A1147250A168A15103073
:103E6A00E7003930E6001B30E500E50B3A2FE60B98
:103E7A003A2FE70B3A2F412F8312031386100A12A7
:103E8A008A153E200A168A15831621080319582F07
:103E9A0027080319582F83120130E2150A128A15CE
:103EAA0026260A168A15240803195F2F25080319DE
:103EBA005F2F74140A128A11F2270A168A15741CC3
:103ECA00B32F18308312D10000300A128A11E32668
:103EDA000A168A150E30D10001300A128A11E32619
:103EEA000A168A150530D10002300A128A11E32611
:103EFA000A168A151830D10003300A128A11E326ED
:103F0A000A168A150A168A1147250A168A1583126D
:103F1A0003130B30861483160317E7002630E600D6
:103F2A006630E500E50B972FE60B972FE70B972FE7
:103F3A009E2F0A128A1115200A168A150A168A1144
:103F4A0047250A168A150A168A1114200A168A158E
:103F5A000A128A15F0200A168A159E2F0A128A1149
:103F6A0015200A168A150A168A1147250A168A156D
:103F7A000A168A1114200A168A150A168A15402466
:103F8A000A168A150A168A15E6240A168A150A12C4
:103F9A008A11AA270A168A15F21DB32FF2110A16D8
:103FAA008A155A260A168A150A128A15F1260A1637
:103FBA008A150A168A1540250A168A150A128A15BA
:103FCA00B6210A168A150A128A114B240A168A156C
:103FDA000A168A113F210A168A150A168A156424B6
:103FEA000A168A15721EB32F72120A168A15142619
:063FFA000A168A15B32F20
:02400E0024F399
:00000001FF
